:100000000C942A000C94BD000C94E6000C940F0193
:100010000C9447000C9447000C9447000C94470044
:100020000C9447000C9447000C9447000C94470034
:100030000C9447000C9447000C9447000C94470024
:100040000C9447000C9447000C9447000C94470014
:100050000C94470011241FBECFE5D8E0DEBFCDBF12
:1000600010E0A0E6B0E0E4E8F6E002C005900D92F2
:10007000AC36B107D9F720E0ACE6B0E001C01D9284
:10008000A237B207E1F70E94E8020C9440030C94F7
:100090000000813011F118F08230E1F108958BB742
:1000A00080648BBF613069F028F0623081F063308A
:1000B00089F0089585B7826085BF85B78E7F85BF3B
:1000C000089585B7826085BF85B78160F8CF85B711
:1000D0008D7FF2CF85B78D7FF6CF8BB780688BBFD2
:1000E000613061F028F0623079F0633081F008957A
:1000F00085B7886085BF85B78B7FE1CF85B788607E
:1001000085BF85B78460DBCF85B7877FF3CF85B7A1
:10011000877FF6CF8BB780628BBF662319F0613083
:1001200021F0089585B78F7BCACF85B78064C7CF8C
:10013000813041F018F0823041F008958BB78F7B09
:100140008BBF08958BB78F77FBCF8BB78F7DF8CFA1
:10015000813049F018F0823059F0089570937100A1
:1001600060937000089570936F0060936E0008951F
:1001700070936D0060936C0008951F920F920FB6FC
:100180000F9211242F933F934F935F936F937F931D
:100190008F939F93AF93BF93EF93FF93E091700082
:1001A000F0917100309709F00995FF91EF91BF919F
:1001B000AF919F918F917F916F915F914F913F91FF
:1001C0002F910F900FBE0F901F9018951F920F92B6
:1001D0000FB60F9211242F933F934F935F936F931A
:1001E0007F938F939F93AF93BF93EF93FF93E09190
:1001F0006E00F0916F00309709F00995FF91EF9133
:10020000BF91AF919F918F917F916F915F914F912E
:100210003F912F910F900FBE0F901F9018951F9236
:100220000F920FB60F9211242F933F934F935F932A
:100230006F937F938F939F93AF93BF93EF93FF93AE
:10024000E0916C00F0916D00309709F00995FF91F5
:10025000EF91BF91AF919F918F917F916F915F913E
:100260004F913F912F910F900FBE0F901F901895B7
:100270008430F8F46830E8F44130E1F421E030E013
:1002800001C0220F6A95EAF7823061F0833071F085
:10029000813021F08AB3282B2ABB089587B3282BFD
:1002A00027BB089584B3282B24BB089581B3282B42
:1002B00021BB08954111FDCF21E030E001C0220FA4
:1002C0006A95EAF72095823051F0833059F08130F9
:1002D00019F08AB32823E0CF87B32823E1CF84B372
:1002E0002823E2CF81B32823E3CF8430F8F46830A9
:1002F000E8F44130E1F421E030E001C0220F6A95DA
:10030000EAF7823061F0833071F0813021F08BB3F5
:10031000282B2BBB089588B3282B28BB089585B3C1
:10032000282B25BB089582B3282B22BB08954111A9
:10033000FDCF21E030E001C0220F6A95EAF7209559
:10034000823051F0833059F0813019F08BB328237B
:10035000E0CF88B32823E1CF85B32823E2CF82B34F
:100360002823E3CF8430B8F46830A8F421E030E0EB
:1003700001C0220F6A95EAF7823049F0833049F0D4
:10038000813019F089B38223089586B3FCCF83B3FB
:10039000FACF80B3F8CF0895843018F5613091F426
:1003A000823051F0833059F0813019F08FEF8ABBE1
:1003B00008958FEF87BB08958FEF84BB08958FEF6B
:1003C00081BB089561110DC0823041F0833041F04E
:1003D000813011F01ABA089517BA089514BA089521
:1003E00011BA0895843068F4823041F0833041F0CE
:1003F000813011F06BBB089568BB089565BB08950B
:1004000062BB0895843070F4823041F0833041F053
:10041000813011F089B3089586B3089583B30895A8
:1004200080B3089508958430E8F46830D8F421E06A
:1004300030E001C0220F6A95EAF7823061F0833024
:1004400071F0813021F08BB328272BBB089588B33E
:10045000282728BB089585B3282725BB089582B394
:10046000282722BB08958430A8F4823061F08330BD
:1004700071F0813021F08BB380958BBB089588B3E8
:10048000809588BB089585B3809585BB089582B318
:10049000809582BB0895843050F4683040F4442342
:1004A00021F0413021F40C94750140E0FCCF089517
:1004B000843040F4662321F0613021F40C94F20181
:1004C00060E0FCCF0895882331F0813019F48FB7B4
:1004D00080688FBF08958FB78F77FBCF843028F463
:1004E000683018F441E00C9438010895843050F4D9
:1004F000683040F4442321F0413021F40C9475011C
:1005000040E0FCCF0895843020F4683010F40C945F
:1005100013020895843080F461E0823049F0833022
:1005200049F0813019F080E00C94CC0181E0FCCFDF
:1005300082E0FACF83E0F8CF0895843000F5662397
:1005400019F0613079F00895E42FF0E0E05AFF4FA0
:100550006081823081F0833081F0813051F080E021
:100560000C94F201E42FF0E0E05AFF4F60816095B7
:10057000F0CF81E0F5CF82E0F3CF83E0F1CF0895B3
:100580001F93CF93DF93843080F4683070F4142F7E
:10059000D62FC82F40E00E943801412F6D2F8C2F9D
:1005A000DF91CF911F910C944B02DF91CF911F915E
:1005B0000895843020F4683010F40C94B20180E087
:1005C000089510926A00089560E080E00C94830220
:1005D00082E00E948A0260E080E00E946E0281E078
:1005E0000E94630260E080E00E94490064EE72E0D5
:1005F00080E00E94A80060E081E00E94490061EE76
:1006000072E081E00E94A80040E062E083E00E9486
:10061000380141E062E083E00E944B0241E060E08B
:1006200080E00E94380140E060E080E00E947602B5
:1006300061E082E00E94CC0140E063E083E00E9440
:10064000380141E063E083E00E944B0240916A0080
:1006500061E082E00E949D022FEF80E792E021504E
:1006600080409040E1F700C0000080916A008F5FF9
:1006700080936A00893050F381E080936A00E6CF6E
:04068000F894FFCF1C
:0C068400C0F9A4B0999282F880900100A7
:00000001FF
