:100000000C942A000C94F0020C9419030C944203F3
:100010000C9447000C9447000C9447000C94470044
:100020000C9447000C9447000C9428020C94C801CF
:100030000C9447000C9447000C9447000C94470024
:100040000C940C050C9447000C9447000C9447004A
:100050000C94470011241FBECFE5D8E0DEBFCDBF12
:1000600010E0A0E6B0E0E6EEF1E102C005900D92EE
:10007000A437B107D9F720E0A4E7B0E001C01D9292
:10008000AF39B207E1F70E946A060C94F1080C94AC
:10009000000081B5886081BD81B5816081BD81B579
:1000A000826081BD81B5846081BD0895A895089561
:1000B00088E181BD81B5877F81BD81BD08958FB500
:1000C0008E7F8FBD8FB582608FBD8EB588608EBDEF
:1000D0008EB580618EBD8FB58F7B8FBD8FB58068EB
:1000E0008FBD8FB58F7E8FBD8FB58F7D8FBD8EB548
:1000F000887F8EBD8EB58E7F8EBD8EB582608EBDA3
:100100008EB58B7F8EBD089590937D0080937C008B
:10011000089590937B0080937A000895089583B7A3
:10012000806483BF83B7886083BF83B78F7E83BFBC
:1001300083B7806283BF83B7887F83BF83B78260C2
:1001400083BF089590938B0080938A00089508954B
:100150008CBF08958F929F92AF92BF92CF92DF9201
:10016000EF92FF92CF93DF934B015C01D42FC22F0C
:1001700020916400309165004091660050916700C5
:1001800060E070E080E091E40E9455079B01AC01C3
:1001900060E070E080E89FE30E9455076B017C01FE
:1001A000DD2369F0D23061F1DF91CF91FF90EF90C4
:1001B000DF90CF90BF90AF909F908F900895A8EE62
:1001C000B3E0A50194010E94DD060E94F6074B01F1
:1001D0005C0120E030E040E853E4C701B6010E9432
:1001E00084089B01AC01C501B4010E9455076093CE
:1001F0007E0070937F008093800090938100D4CF25
:10020000A8EEB3E0A50194010E94DD064B015C015C
:100210006C2F70E090E080E00E94F807A701960143
:100220000E9484080E94C7079B01AC01C501B4016C
:100230000E94A606CA01B9010E94F60760938200D7
:10024000709383008093840090938500ADCFCF920C
:10025000DF92EF92FF92CF93DF93EC01CB01BA01D3
:100260000E94C70720E040E00E94AA00C0907E00E4
:10027000D0907F00E0908000F0908100C701B6012F
:100280000E94C7070E94F6079B01AC01C701B60197
:100290000E94E80620E030E040E853E40E94840831
:1002A0009B01AC0160E070E080E893E40E94E80606
:1002B0000E94C707662381F020E030E040E85FE35A
:1002C000C701B6010E94E90660937E0070937F002B
:1002D0008093800090938100D0938D00C0938C0018
:1002E000DF91CF91FF90EF90DF90CF900895CF9264
:1002F000DF92EF92FF929B01AC0188EC8CBF89B733
:100300008D7F89BFA8EEB3E00E94DD066B017C0102
:100310002091640030916500409166005091670023
:1003200060E070E080E091E40E9455079B01AC0121
:1003300060E070E080E89FE30E94550720E030E035
:1003400048E453E40E9484080E94C7079B01AC0163
:10035000C701B6010E94A606C12CD12C7601C21697
:10036000D306E406F50641F489B7826089BFFF90A1
:10037000EF90DF90CF90089588B78270E9F388B747
:10038000826088BF8FEFC81AD80AE80AF80AE7CF58
:100390001F920F920FB60F921124CF92DF92EF921D
:1003A000FF922F933F934F935F936F937F938F931E
:1003B0009F93AF93BF93EF93FF93C0909000D09023
:1003C0009100E0909200F09093008FEFC81AD80A45
:1003D000E80AF80AC0929000D0929100E092920050
:1003E000F092930060917E0070917F008091800078
:1003F000909181000E94C707C616D706E806F90645
:1004000091F4E0918C00F0918D00309709F00995FE
:10041000109290001092910010929200109293000E
:100420008091880082BFFF91EF91BF91AF919F9122
:100430008F917F916F915F914F913F912F91FF909D
:10044000EF90DF90CF900F900FBE0F901F901895F8
:100450001F920F920FB60F921124CF92DF92EF925C
:10046000FF922F933F934F935F936F937F938F935D
:100470009F93AF93BF93EF93FF93C0908E00D09064
:100480008F008FEFC81AD80AD0928F00C0928E00CA
:10049000F12CE12C609182007091830080918400A6
:1004A000909185000E94C707C616D706E806F90690
:1004B00071F4E0918A00F0918B00309709F0099572
:1004C00010928F0010928E00809186008CBFFF9159
:1004D000EF91BF91AF919F918F917F916F915F91BC
:1004E0004F913F912F91FF90EF90DF90CF900F9021
:1004F0000FBE0F901F901895813011F118F08230C7
:10050000E1F108958BB780648BBF613069F028F00A
:10051000623081F0633089F0089585B7826085BFCD
:1005200085B78E7F85BF089585B7826085BF85B703
:100530008160F8CF85B78D7FF2CF85B78D7FF6CFFD
:100540008BB780688BBF613061F028F0623079F042
:10055000633081F0089585B7886085BF85B78B7F4C
:10056000E1CF85B7886085BF85B78460DBCF85B76D
:10057000877FF3CF85B7877FF6CF8BB780628BBF3E
:10058000662319F0613021F0089585B78F7BCACFBB
:1005900085B78064C7CF813041F018F0823041F0D8
:1005A00008958BB78F7B8BBF08958BB78F77FBCF69
:1005B0008BB78F7DF8CF813049F018F0823059F039
:1005C0000895709399006093980008957093970030
:1005D0006093960008957093950060939400089539
:1005E0001F920F920FB60F9211242F933F934F93A8
:1005F0005F936F937F938F939F93AF93BF93EF938B
:10060000FF93E0919800F0919900309709F00995D7
:10061000FF91EF91BF91AF919F918F917F916F91DA
:100620005F914F913F912F910F900FBE0F901F90B0
:1006300018951F920F920FB60F9211242F933F938C
:100640004F935F936F937F938F939F93AF93BF93DA
:10065000EF93FF93E0919600F0919700309709F0A7
:100660000995FF91EF91BF91AF919F918F917F91EC
:100670006F915F914F913F912F910F900FBE0F900F
:100680001F9018951F920F920FB60F9211242F935F
:100690003F934F935F936F937F938F939F93AF930A
:1006A000BF93EF93FF93E0919400F0919500309702
:1006B00009F00995FF91EF91BF91AF919F918F91B3
:1006C0007F916F915F914F913F912F910F900FBE4E
:1006D0000F901F9018958430F8F46830E8F441309A
:1006E000E1F421E030E001C0220F6A95EAF78230A0
:1006F00061F0833071F0813021F08AB3282B2ABB5E
:10070000089587B3282B27BB089584B3282B24BBD7
:10071000089581B3282B21BB08954111FDCF21E01D
:1007200030E001C0220F6A95EAF72095823051F03F
:10073000833059F0813019F08AB32823E0CF87B392
:100740002823E1CF84B32823E2CF81B32823E3CF4A
:100750008430F8F46830E8F44130E1F421E030E02E
:1007600001C0220F6A95EAF7823061F0833071F0A0
:10077000813021F08BB3282B2BBB089588B3282B15
:1007800028BB089585B3282B25BB089582B3282B59
:1007900022BB08954111FDCF21E030E001C0220FBE
:1007A0006A95EAF72095823051F0833059F0813014
:1007B00019F08BB32823E0CF88B32823E1CF85B38A
:1007C0002823E2CF82B32823E3CF8430B8F4683003
:1007D000A8F421E030E001C0220F6A95EAF78230E8
:1007E00049F0833049F0813019F089B382230895AC
:1007F00086B3FCCF83B3FACF80B3F8CF08958430AB
:1008000018F5613091F4823051F0833059F0813025
:1008100019F08FEF8ABB08958FEF87BB08958FEF94
:1008200084BB08958FEF81BB089561110DC08230A4
:1008300041F0833041F0813011F01ABA089517BAAF
:10084000089514BA089511BA0895843068F4823076
:1008500041F0833041F0813011F06BBB089568BBEB
:10086000089565BB089562BB0895843070F48230AA
:1008700041F0833041F0813011F089B3089586B39F
:10088000089583B3089580B3089508958430E8F4FB
:100890006830D8F421E030E001C0220F6A95EAF711
:1008A000823061F0833071F0813021F08BB32827E2
:1008B0002BBB089588B3282728BB089585B3282724
:1008C00025BB089582B3282722BB08958430A8F45D
:1008D000823061F0833071F0813021F08BB38095EC
:1008E0008BBB089588B3809588BB089585B38095A8
:1008F00085BB089582B3809582BB0895843050F4FF
:10090000683040F4442321F0413021F40C94A803D2
:1009100040E0FCCF0895843040F4662321F061303C
:1009200021F40C94250460E0FCCF0895882331F075
:10093000813019F48FB780688FBF08958FB78F7794
:10094000FBCF3E9A3F983D98379A3598339A86B1B7
:10095000887F86B9089597B1907E97B9883090F4D2
:10096000E82FF0E0E854FB4F87B1807E0C94C80676
:10097000C104C004C604C804CA04CC04CE04D00414
:10098000816087B9369A84B195B108958260F9CFB4
:100990008360F7CF8460F5CF8560F3CF8660F1CFB9
:1009A0008760EFCF90919A00992399F161157105B5
:1009B00081F110929A0097B1907E97B9883090F4A7
:1009C000E82FF0E0E851FB4F87B1807E0C94C80619
:1009D000F104F004FD04FF04010503050505070506
:1009E000816087B970939E0060939D00369A339A18
:1009F00080919B0090919C0008958260F2CF83606B
:100A0000F0CF8460EECF8560ECCF8660EACF876060
:100A1000E8CF90E080E008951F920F920FB60F92FA
:100A200011242F933F934F935F936F937F938F93F3
:100A30009F93AF93BF93EF93FF9384B195B190933E
:100A40009C0080939B0081E080939A00E0919D0040
:100A5000F0919E0009953398FF91EF91BF91AF916E
:100A60009F918F917F916F915F914F913F912F91C6
:100A70000F900FBE0F901F901895843028F46830A7
:100A800018F441E00C946B030895843050F46830FE
:100A900040F4442321F0413021F40C94A80340E0B9
:100AA000FCCF0895843020F4683010F40C94460490
:100AB000089541E067E082E00E94A8038FEC97E090
:100AC0000197F1F700C0000040E067E082E00C947D
:100AD000A803CF93C82F40E065E082E00E94A803FE
:100AE00040E066E082E00E94A8036C2F83E00E9451
:100AF0002504CF910C94590561E083E00E94FF0327
:100B000041E065E082E00E946B0341E066E082E044
:100B10000E946B0341E067E082E00E946B032FEBD1
:100B20008AED90E0215080409040E1F700C0000045
:100B300088E30E9469058FEC97E00197F1F700C008
:100B400000008CE00E9469058FEC97E00197F1F7B7
:100B500000C0000081E00E9469058FE99FE00197D5
:100B6000F1F700C0000086E00E9469058FEC97E075
:100B70000197F1F700C000000895823050F4603111
:100B800040F4813021F080E8860F0C94690580ECF8
:100B9000FBCF089585E00C94690587E00C94690506
:100BA00081E00C946905CF93C82F41E065E082E0B5
:100BB0000E94A80340E066E082E00E94A8036C2F38
:100BC00083E00E942504CF910C9459050F931F9345
:100BD000CF938C01C0E0F801EC0FF11D80818111F1
:100BE00004C0CF911F910F9108950E94D305CF5F4C
:100BF000F2CF0F931F93CF93DF938B010E94690570
:100C0000E801085F1F4F89910E94D305C017D107E3
:100C1000D1F7DF91CF911F910F910895CF93C82FF6
:100C2000862F642F0E94BD058C2FCF910C94D30585
:100C3000EF92FF920F931F93CF93DF93CDB7DEB761
:100C40002A970FB6F894DEBF0FBECDBF00E02AE0B2
:100C5000E22EF12C009781F480E32A960FB6F894E7
:100C6000DEBF0FBECDBFDF91CF911F910F91FF90DF
:100C7000EF900C94D305022FE1E0F0E0EC0FFD1FA4
:100C8000E00FF11DB7010E9492068083CB0121E0A5
:100C9000200F009781F7002E000C110B07FF0DC0ED
:100CA0002A960FB6F894DEBF0FBECDBFDF91CF916D
:100CB0001F910F91FF90EF900895E1E0F0E0EC0FAD
:100CC000FD1FE00FF11F8081805D0E94D305015060
:100CD0001109E4CF0E947C050E948F000E94A104AC
:100CE0000E947C0540E060E080E00E946B0341E0F0
:100CF00063E081E00E946B03CC24CA9483E0D82E89
:100D0000E12CF12C80E00E94AB049C01AFEFB0E03D
:100D10000E94CE06A70196010E94A606822F0E947D
:100D2000A800F0CFAA1BBB1B51E107C0AA1FBB1F25
:100D3000A617B70710F0A61BB70B881F991F5A9567
:100D4000A9F780959095BC01CD010895A1E21A2ED6
:100D5000AA1BBB1BFD010DC0AA1FBB1FEE1FFF1F5F
:100D6000A217B307E407F50720F0A21BB30BE40BAF
:100D7000F50B661F771F881F991F1A9469F76095F6
:100D80007095809590959B01AC01BD01CF010895B0
:100D9000EE0FFF1F0590F491E02D0994A29FB00182
:100DA000B39FC001A39F700D811D1124911DB29F9F
:100DB000700D811D1124911D08950E94CE06A59FDE
:100DC000900DB49F900DA49F800D911D1124089546
:100DD0005058BB27AA270E9400070C944A080E947B
:100DE0003C0838F00E94430820F039F49F3F19F482
:100DF00026F40C9439080EF4E095E7FB0C943308C4
:100E0000E92F0E945B0858F3BA176207730784073B
:100E1000950720F079F4A6F50C947D080EF4E09582
:100E20000B2EBA2FA02D0B01B90190010C01CA01A4
:100E3000A0011124FF27591B99F0593F50F4503E4F
:100E400068F11A16F040A22F232F342F4427585F41
:100E5000F3CF469537952795A795F0405395C9F759
:100E60007EF41F16BA0B620B730B840BBAF0915011
:100E7000A1F0FF0FBB1F661F771F881FC2F70EC0B0
:100E8000BA0F621F731F841F48F487957795679583
:100E9000B795F7959E3F08F0B0CF9395880F08F06F
:100EA0009927EE0F9795879508950E9469070C94EE
:100EB0004A080E94430858F00E943C0840F029F478
:100EC0005F3F29F00C94330851110C947E080C9468
:100ED00039080E945B0868F39923B1F3552391F315
:100EE000951B550BBB27AA2762177307840738F099
:100EF0009F5F5F4F220F331F441FAA1FA9F335D0F6
:100F00000E2E3AF0E0E832D091505040E695001CA9
:100F1000CAF72BD0FE2F29D0660F771F881FBB1F63
:100F2000261737074807AB07B0E809F0BB0B802D41
:100F3000BF01FF2793585F4F3AF09E3F510578F06D
:100F40000C9433080C947E085F3FE4F3983ED4F38E
:100F5000869577956795B795F7959F5FC9F7880F41
:100F6000911D9695879597F90895E1E0660F771F93
:100F7000881FBB1F621773078407BA0720F0621B24
:100F8000730B840BBA0BEE1F88F7E09508950E944F
:100F9000630888F09F5798F0B92F9927B751B0F0A0
:100FA000E1F0660F771F881F991F1AF0BA95C9F7ED
:100FB00014C0B13091F00E947D08B1E008950C9406
:100FC0007D08672F782F8827B85F39F0B93FCCF3B9
:100FD000869577956795B395D9F73EF4909580956A
:100FE000709561957F4F8F4F9F4F0895E89409C08A
:100FF00097FB3EF490958095709561957F4F8F4F4C
:101000009F4F9923A9F0F92F96E9BB279395F69561
:10101000879577956795B795F111F8CFFAF4BB0FDF
:1010200011F460FF1BC06F5F7F4F8F4F9F4F16C043
:10103000882311F096E911C0772321F09EE8872FCD
:10104000762F05C0662371F096E8862F70E060E089
:101050002AF09A95660F771F881FDAF7880F969502
:10106000879597F9089597F99F6780E870E060E0A9
:1010700008959FEF80EC089500240A941616170631
:1010800018060906089500240A9412161306140679
:1010900005060895092E0394000C11F4882352F0DC
:1010A000BB0F40F4BF2B11F460FF04C06F5F7F4F94
:1010B0008F4F9F4F089557FD9058440F551F59F07B
:1010C0005F3F71F04795880F97FB991F61F09F3F35
:1010D00079F087950895121613061406551FF2CF5E
:1010E0004695F1DF08C0161617061806991FF1CFAE
:1010F00086957105610508940895E894BB276627D5
:101100007727CB0197F908950E9497080C944A0815
:101110000E943C0838F00E94430820F0952311F00B
:101120000C9433080C94390811240C947E080E9406
:101130005B0870F3959FC1F3950F50E0551F629FB8
:10114000F001729FBB27F00DB11D639FAA27F00D20
:10115000B11DAA1F649F6627B00DA11D661F829F47
:101160002227B00DA11D621F739FB00DA11D621F2C
:10117000839FA00D611D221F749F3327A00D611D49
:10118000231F849F600D211D822F762F6A2F11242B
:101190009F5750409AF0F1F088234AF0EE0FFF1F5E
:1011A000BB1F661F771F881F91505040A9F79E3FB5
:1011B000510580F00C9433080C947E085F3FE4F3F3
:1011C000983ED4F3869577956795B795F795E7950B
:1011D0009F5FC1F7FE2B880F911D9695879597F914
:0611E0000895F894FFCF12
:1011E6000000803F00000041000080420000804374
:0411F6000000804431
:00000001FF
