:100000000C942A000C94BD000C94E6000C940F0193
:100010000C9447000C9447000C9447000C94470044
:100020000C9447000C9447000C9447000C94470034
:100030000C9447000C9447000C9447000C94470024
:100040000C94D9020C9447000C9447000C94470080
:100050000C94470011241FBECFE5D8E0DEBFCDBF12
:1000600010E0A0E6B0E0E2E9FCE002C005900D92ED
:10007000AA39B107D9F720E0AAE9B0E001C01D9282
:10008000A53AB207E1F70E949B050C9447060C9431
:100090000000813011F118F08230E1F108958BB742
:1000A00080648BBF613069F028F0623081F063308A
:1000B00089F0089585B7826085BF85B78E7F85BF3B
:1000C000089585B7826085BF85B78160F8CF85B711
:1000D0008D7FF2CF85B78D7FF6CF8BB780688BBFD2
:1000E000613061F028F0623079F0633081F008957A
:1000F00085B7886085BF85B78B7FE1CF85B788607E
:1001000085BF85B78460DBCF85B7877FF3CF85B7A1
:10011000877FF6CF8BB780628BBF662319F0613083
:1001200021F0089585B78F7BCACF85B78064C7CF8C
:10013000813041F018F0823041F008958BB78F7B09
:100140008BBF08958BB78F77FBCF8BB78F7DF8CFA1
:10015000813049F018F0823059F0089570939F0073
:1001600060939E00089570939D0060939C00089595
:1001700070939B0060939A0008951F920F920FB6A0
:100180000F9211242F933F934F935F936F937F931D
:100190008F939F93AF93BF93EF93FF93E0919E0054
:1001A000F0919F00309709F00995FF91EF91BF9171
:1001B000AF919F918F917F916F915F914F913F91FF
:1001C0002F910F900FBE0F901F9018951F920F92B6
:1001D0000FB60F9211242F933F934F935F936F931A
:1001E0007F938F939F93AF93BF93EF93FF93E09190
:1001F0009C00F0919D00309709F00995FF91EF91D7
:10020000BF91AF919F918F917F916F915F914F912E
:100210003F912F910F900FBE0F901F9018951F9236
:100220000F920FB60F9211242F933F934F935F932A
:100230006F937F938F939F93AF93BF93EF93FF93AE
:10024000E0919A00F0919B00309709F00995FF9199
:10025000EF91BF91AF919F918F917F916F915F913E
:100260004F913F912F910F900FBE0F901F901895B7
:100270008430F8F46830E8F44130E1F421E030E013
:1002800001C0220F6A95EAF7823061F0833071F085
:10029000813021F08AB3282B2ABB089587B3282BFD
:1002A00027BB089584B3282B24BB089581B3282B42
:1002B00021BB08954111FDCF21E030E001C0220FA4
:1002C0006A95EAF72095823051F0833059F08130F9
:1002D00019F08AB32823E0CF87B32823E1CF84B372
:1002E0002823E2CF81B32823E3CF8430F8F46830A9
:1002F000E8F44130E1F421E030E001C0220F6A95DA
:10030000EAF7823061F0833071F0813021F08BB3F5
:10031000282B2BBB089588B3282B28BB089585B3C1
:10032000282B25BB089582B3282B22BB08954111A9
:10033000FDCF21E030E001C0220F6A95EAF7209559
:10034000823051F0833059F0813019F08BB328237B
:10035000E0CF88B32823E1CF85B32823E2CF82B34F
:100360002823E3CF8430B8F46830A8F421E030E0EB
:1003700001C0220F6A95EAF7823049F0833049F0D4
:10038000813019F089B38223089586B3FCCF83B3FB
:10039000FACF80B3F8CF0895843018F5613091F426
:1003A000823051F0833059F0813019F08FEF8ABBE1
:1003B00008958FEF87BB08958FEF84BB08958FEF6B
:1003C00081BB089561110DC0823041F0833041F04E
:1003D000813011F01ABA089517BA089514BA089521
:1003E00011BA0895843068F4823041F0833041F0CE
:1003F000813011F06BBB089568BB089565BB08950B
:1004000062BB0895843070F4823041F0833041F053
:10041000813011F089B3089586B3089583B30895A8
:1004200080B3089508958430E8F46830D8F421E06A
:1004300030E001C0220F6A95EAF7823061F0833024
:1004400071F0813021F08BB328272BBB089588B33E
:10045000282728BB089585B3282725BB089582B394
:10046000282722BB08958430A8F4823061F08330BD
:1004700071F0813021F08BB380958BBB089588B3E8
:10048000809588BB089585B3809585BB089582B318
:10049000809582BB0895843050F4683040F4442342
:1004A00021F0413021F40C94750140E0FCCF089517
:1004B000843040F4662321F0613021F40C94F20181
:1004C00060E0FCCF0895882331F0813019F48FB7B4
:1004D00080688FBF08958FB78F77FBCF3E9A3F9884
:1004E0003D98379A3598339A86B1887F86B90895B2
:1004F00097B1907E97B9883090F4E82FF0E0EB57F1
:10050000FD4F87B1807E0C9432068E028D029302DD
:100510009502970299029B029D02816087B9369AE3
:1005200084B195B108958260F9CF8360F7CF84607C
:10053000F5CF8560F3CF8660F1CF8760EFCF9091E4
:10054000A000992399F16115710581F11092A00025
:1005500097B1907E97B9883090F4E82FF0E0EB5493
:10056000FD4F87B1807E0C943206BE02BD02CA02E6
:10057000CC02CE02D002D202D402816087B970933D
:10058000A4006093A300369A339A8091A1009091C1
:10059000A20008958260F2CF8360F0CF8460EECF36
:1005A0008560ECCF8660EACF8760E8CF90E080E09E
:1005B00008951F920F920FB60F9211242F933F931D
:1005C0004F935F936F937F938F939F93AF93BF935B
:1005D000EF93FF9384B195B19093A2008093A10013
:1005E00081E08093A000E091A300F091A400099520
:1005F0003398FF91EF91BF91AF919F918F917F9130
:100600006F915F914F913F912F910F900FBE0F907F
:100610001F901895843028F4683018F441E00C9449
:1006200038010895843050F4683040F4442321F0B8
:10063000413021F40C94750140E0FCCF08958430E2
:1006400020F4683010F40C9413020895843080F480
:1006500061E0823049F0833049F0813019F080E068
:100660000C94CC0181E0FCCF82E0FACF83E0F8CF9C
:100670000895843000F5662319F0613079F008950B
:10068000E42FF0E0E05AFF4F6081823081F0833048
:1006900081F0813051F080E00C94F201E42FF0E021
:1006A000E05AFF4F60816095F0CF81E0F5CF82E0A6
:1006B000F3CF83E0F1CF089540E060E080E00E9456
:1006C000380140E061E080E00E94380140E062E0F3
:1006D00080E00E94380140E063E080E00E94380141
:1006E00041E064E080E00E94380141E065E080E0A4
:1006F0000E94380141E066E080E00E94380141E05C
:1007000067E080E00E94380141E060E080E00E9404
:100710004B0241E061E080E00E944B0241E062E078
:1007200080E00E944B0241E063E080E00E944B02C7
:1007300041E064E080E00E94750141E065E080E016
:100740000E94750141E066E080E00E94750141E091
:1007500067E080E00C947501BF92CF92DF92EF9238
:10076000FF920F931F93CF93DF939EE7C92E90E0E4
:10077000D92EF12CE12CBB24BA94F60161916F01C2
:1007800040E080E00E9475010AE710E0D0E0C0E0A0
:10079000F80161918F0180E00E94B20181112FC0A8
:1007A0008E01000F111F000F111F06591F4F0E0D54
:1007B0001F1DC658DF4FF801B080688180E00E949D
:1007C000B2018823C1F3C1E041E0F60131976081B5
:1007D00080E00E947501C13039F0FFEFEF1AFF0A87
:1007E00084E0E816F10449F68B2DDF91CF911F913B
:1007F0000F91FF90EF90DF90CF90BF9008952196DA
:10080000C430D10529F6C0E0DFCF41E062E082E0EC
:100810000E9475018FEC97E00197F1F700C000008E
:1008200040E062E082E00C947501CF93C82F40E075
:1008300060E082E00E94750140E061E082E00E9499
:1008400075016C2F81E00E94F201CF910C94050498
:1008500061E081E00E94CC0141E060E082E00E9422
:10086000380141E061E082E00E94380141E062E04D
:1008700082E00E9438012FEB8AED90E02150804009
:100880009040E1F700C0000088E30E9415048FEC5F
:1008900097E00197F1F700C000008CE00E9415047A
:1008A0008FEC97E00197F1F700C0000081E00E9413
:1008B00015048FE99FE00197F1F700C0000086E082
:1008C0000E9415048FEC97E00197F1F700C000003B
:1008D0000895823050F4603140F4813021F080E896
:1008E000860F0C94150480ECFBCF089585E00C94E2
:1008F000150487E00C94150481E00C941504CF9343
:10090000C82F41E060E082E00E94750140E061E0B4
:1009100082E00E9475016C2F81E00E94F201CF916C
:100920000C9405040F931F93CF938C01C0E0F80142
:10093000EC0FF11D8081811104C0CF911F910F91A7
:1009400008950E947F04CF5FF2CF0F931F93CF9340
:10095000DF938B010E941504E801085F1F4F899106
:100960000E947F04C017D107D1F7DF91CF911F916B
:100970000F910895CF93C82F862F642F0E9469048A
:100980008C2FCF910C947F04EF92FF920F931F93C3
:10099000CF93DF93CDB7DEB72A970FB6F894DEBFBB
:1009A0000FBECDBF00E02AE0E22EF12C009781F4CB
:1009B00080E32A960FB6F894DEBF0FBECDBFDF915D
:1009C000CF911F910F91FF90EF900C947F04022F15
:1009D000E1E0F0E0EC0FFD1FE00FF11DB7010E9418
:1009E000FC058083CB0121E0200F009781F7002ECA
:1009F000000C110B07FF0DC02A960FB6F894DEBF4E
:100A00000FBECDBFDF91CF911F910F91FF90EF905F
:100A10000895E1E0F0E0EC0FFD1FE00FF11F808191
:100A2000805D0E947F0401501109E4CF1F93CF9392
:100A3000DF93843080F4683070F4142FD62FC82FE1
:100A400040E00E943801412F6D2F8C2FDF91CF9114
:100A50001F910C944B02DF91CF911F910895843028
:100A600020F4683010F40C94B20180E0089541E065
:100A700060E082E00E94750140E061E082E00E9457
:100A8000750141E062E082E00E94750140E063E0B0
:100A900082E00C94750140E060E082E00E94750104
:100AA00041E061E082E00E94750140E062E082E0A6
:100AB0000E94750141E063E082E00C94750141E021
:100AC00060E082E00E94750140E061E082E00E9407
:100AD000750140E062E082E00E94750140E063E061
:100AE00082E00C94750140E060E082E00E947501B4
:100AF00040E061E082E00E94750141E062E082E056
:100B00000E94750140E063E082E00C94750140E0D2
:100B100060E082E00E94750140E061E082E00E94B6
:100B2000750140E062E082E00E94750140E063E010
:100B300082E00C9475010E9428040E946E0261E01C
:100B400083E00E94CC01C0E040E06C2F83E00E9473
:100B50001203CF5FC830C1F788248A9433E0932E04
:100B6000A12CB12C04E610E080E00E9478027C0108
:100B700060E080E00E94690482E890E00E949204B4
:100B8000C7010E94C4049701A4E6B0E00E943806A1
:100B9000A50194010E941006690160E081E00E94B5
:100BA00069048DE890E00E949204C6010E94C4048A
:100BB000C0E040E06C2F83E00E941203CF5FC8309A
:100BC000C1F7C60123E0880F991F2A95E1F7B80104
:100BD0000E94FC05F62EC0E0CF1538F08FE19EE4B0
:100BE0000197F1F700C00000BFCF41E06C2F83E018
:100BF0000E941203CF5FF0CFAA1BBB1B51E107C0BD
:100C0000AA1FBB1FA617B70710F0A61BB70B881F9C
:100C1000991F5A95A9F780959095BC01CD0108952B
:100C2000A1E21A2EAA1BBB1BFD010DC0AA1FBB1FF0
:100C3000EE1FFF1FA217B307E407F50720F0A21B62
:100C4000B30BE40BF50B661F771F881F991F1A94CF
:100C500069F760957095809590959B01AC01BD01F9
:100C6000CF010895EE0FFF1F0590F491E02D099438
:100C7000A29FB001B39FC001A39F700D811D1124DD
:100C8000911DB29F700D811D1124911D0895F8943E
:020C9000FFCF94
:100C9200C0F9A4B0999282F880903738392F343550
:100CA200362A3132332D23303D2B00010203040555
:100CB20006074144435F56414C554520007065721A
:0A0CC20063656E7461676520000031
:00000001FF
