:100000000C942A000C943F000C943F000C943F0089
:100010000C943F000C943F000C943F000C943F0064
:100020000C943F000C943F000C943F000C943F0054
:100030000C943F000C943F000C943F000C943F0044
:100040000C943F000C943F000C943F000C943F0034
:100050000C943F0011241FBECFE5D8E0DEBFCDBF1A
:1000600010E0A0E6B0E0E8E0F5E002C005900D92F7
:10007000AA36B107D9F70E9443020C9482020C946D
:1000800000008430F8F46830E8F44130E1F421E015
:1000900030E001C0220F6A95EAF7823061F08330C8
:1000A00071F0813021F08AB3282B2ABB089587B3E1
:1000B000282B27BB089584B3282B24BB089581B334
:1000C000282B21BB08954111FDCF21E030E001C074
:1000D000220F6A95EAF72095823051F0833059F06B
:1000E000813019F08AB32823E0CF87B32823E1CFEA
:1000F00084B32823E2CF81B32823E3CF8430F8F4FC
:100100006830E8F44130E1F421E030E001C0220F32
:100110006A95EAF7823061F0833071F0813021F026
:100120008BB3282B2BBB089588B3282B28BB0895AD
:1001300085B3282B25BB089582B3282B22BB0895B5
:100140004111FDCF21E030E001C0220F6A95EAF7AE
:100150002095823051F0833059F0813019F08BB303
:100160002823E0CF88B32823E1CF85B32823E2CF2B
:1001700082B32823E3CF8430B8F46830A8F421E0B8
:1001800030E001C0220F6A95EAF7823049F08330EF
:1001900049F0813019F089B38223089586B3FCCFEA
:1001A00083B3FACF80B3F8CF0895843018F5613067
:1001B00091F4823051F0833059F0813019F08FEF93
:1001C0008ABB08958FEF87BB08958FEF84BB089596
:1001D0008FEF81BB089561110DC0823041F08330F3
:1001E00041F0813011F01ABA089517BA089514BA7F
:1001F000089511BA0895843068F4823041F0833054
:1002000041F0813011F06BBB089568BB089565BB68
:10021000089562BB0895843070F4823041F08330D9
:1002200041F0813011F089B3089586B3089583B306
:10023000089580B3089508958430E8F46830D8F4C0
:1002400021E030E001C0220F6A95EAF7823061F0C8
:10025000833071F0813021F08BB328272BBB0895B8
:1002600088B3282728BB089585B3282725BB089580
:1002700082B3282722BB08958430A8F4823061F02D
:10028000833071F0813021F08BB380958BBB089562
:1002900088B3809588BB089585B3809585BB089504
:1002A00082B3809582BB0895843050F4683040F466
:1002B000442321F0413021F40C947E0040E0FCCF37
:1002C0000895843040F4662321F0613021F40C94C9
:1002D000FB0060E0FCCF0895843028F4683018F407
:1002E00041E00C9441000895843050F4683040F4AB
:1002F000442321F0413021F40C947E0040E0FCCFF7
:100300000895843020F4683010F40C941C01089592
:10031000843080F461E0823049F0833049F08130EC
:1003200019F080E00C94D50081E0FCCF82E0FACF98
:1003300083E0F8CF0895843000F5662319F061302A
:1003400079F00895E42FF0E0E05AFF4F60818230A9
:1003500081F0833081F0813051F080E00C94FB001B
:10036000E42FF0E0E05AFF4F60816095F0CF81E02C
:10037000F5CF82E0F3CF83E0F1CF08951F93CF93C1
:10038000DF93843080F4683070F4142FD62FC82F98
:1003900040E00E944100412F6D2F8C2FDF91CF91C3
:1003A0001F910C945401DF91CF911F9108958430D7
:1003B00020F4683010F40C94BB0080E0089541E014
:1003C00060E082E00E947E0040E061E082E00E9406
:1003D0007E0041E062E082E00E947E0040E063E057
:1003E00082E00C947E0040E060E082E00E947E00AB
:1003F00041E061E082E00E947E0040E062E082E055
:100400000E947E0041E063E082E00C947E0041E0C7
:1004100060E082E00E947E0040E061E082E00E94B5
:100420007E0040E062E082E00E947E0040E063E007
:1004300082E00C947E0040E060E082E00E947E005A
:1004400040E061E082E00E947E0041E062E082E004
:100450000E947E0040E063E082E00C947E0040E079
:1004600060E082E00E947E0040E061E082E00E9465
:100470007E0040E062E082E00E947E0040E063E0B7
:1004800082E00C947E0060E080E00E94D50061E094
:1004900082E00E94D50060E080E00E94BB00082F4F
:1004A00061E080E00E94BB00182F62E080E00E94C3
:1004B000BB00D82F63E080E00E94BB00C82F64E03F
:1004C00080E00E94BB00882319F00E942F02E3CF36
:1004D000002379F00E94DF01112371F00E94F301E3
:1004E000DD2369F00E940702CC2379F30E941B02EE
:1004F000D2CF0E942F02F0CF0E942F02F1CF0E9494
:080500002F02F2CFF894FFCFA7
:0A050800C0F9A4B0999282F8809027
:00000001FF
