:100000000C942A000C9447000C9447000C94470071
:100010000C9447000C9447000C9447000C94470044
:100020000C9447000C9447000C9447000C94470034
:100030000C9447000C9447000C9447000C94470024
:100040000C9447000C9447000C9447000C94470014
:100050000C94470011241FBECFE5D8E0DEBFCDBF12
:1000600010E0A0E6B0E0EAE5FBE002C005900D92EA
:10007000A839B107D9F720E0A8E9B0E001C01D9286
:10008000AC3AB207E1F70E947E040C94AB050C94E5
:1000900000008430F8F46830E8F44130E1F421E005
:1000A00030E001C0220F6A95EAF7823061F08330B8
:1000B00071F0813021F08AB3282B2ABB089587B3D1
:1000C000282B27BB089584B3282B24BB089581B324
:1000D000282B21BB08954111FDCF21E030E001C064
:1000E000220F6A95EAF72095823051F0833059F05B
:1000F000813019F08AB32823E0CF87B32823E1CFDA
:1001000084B32823E2CF81B32823E3CF8430F8F4EB
:100110006830E8F44130E1F421E030E001C0220F22
:100120006A95EAF7823061F0833071F0813021F016
:100130008BB3282B2BBB089588B3282B28BB08959D
:1001400085B3282B25BB089582B3282B22BB0895A5
:100150004111FDCF21E030E001C0220F6A95EAF79E
:100160002095823051F0833059F0813019F08BB3F3
:100170002823E0CF88B32823E1CF85B32823E2CF1B
:1001800082B32823E3CF8430B8F46830A8F421E0A8
:1001900030E001C0220F6A95EAF7823049F08330DF
:1001A00049F0813019F089B38223089586B3FCCFDA
:1001B00083B3FACF80B3F8CF0895843018F5613057
:1001C00091F4823051F0833059F0813019F08FEF83
:1001D0008ABB08958FEF87BB08958FEF84BB089586
:1001E0008FEF81BB089561110DC0823041F08330E3
:1001F00041F0813011F01ABA089517BA089514BA6F
:10020000089511BA0895843068F4823041F0833043
:1002100041F0813011F06BBB089568BB089565BB58
:10022000089562BB0895843070F4823041F08330C9
:1002300041F0813011F089B3089586B3089583B3F6
:10024000089580B3089508958430E8F46830D8F4B0
:1002500021E030E001C0220F6A95EAF7823061F0B8
:10026000833071F0813021F08BB328272BBB0895A8
:1002700088B3282728BB089585B3282725BB089570
:1002800082B3282722BB08958430A8F4823061F01D
:10029000833071F0813021F08BB380958BBB089552
:1002A00088B3809588BB089585B3809585BB0895F4
:1002B00082B3809582BB0895843050F4683040F456
:1002C000442321F0413021F40C94860040E0FCCF1F
:1002D0000895843040F4662321F0613021F40C94B9
:1002E000030160E0FCCF0895843028F4683018F4EE
:1002F00041E00C9449000895843050F4683040F493
:10030000442321F0413021F40C94860040E0FCCFDE
:100310000895843020F4683010F40C94240108957A
:10032000843080F461E0823049F0833049F08130DC
:1003300019F080E00C94DD0081E0FCCF82E0FACF80
:1003400083E0F8CF0895843000F5662319F061301A
:1003500079F00895E42FF0E0E05AFF4F6081823099
:1003600081F0833081F0813051F080E00C94030102
:10037000E42FF0E0E05AFF4F60816095F0CF81E01C
:10038000F5CF82E0F3CF83E0F1CF089540E060E065
:1003900080E00E94490040E061E080E00E94490066
:1003A00040E062E080E00E94490040E063E080E0DD
:1003B0000E94490041E064E080E00E94490041E081
:1003C00065E080E00E94490041E066E080E00E9434
:1003D000490041E067E080E00E94490041E060E0C0
:1003E00080E00E945C0141E061E080E00E945C01ED
:1003F00041E062E080E00E945C0141E063E080E077
:100400000E945C0141E064E080E00E94860041E0DF
:1004100065E080E00E94860041E066E080E00E94A6
:10042000860041E067E080E00C948600BF92CF92A6
:10043000DF92EF92FF920F931F93CF93DF939EE78C
:10044000C92E90E0D92EF12CE12CBB24BA94F601F0
:1004500061916F0140E080E00E9486000AE710E0B1
:10046000D0E0C0E0F80161918F0180E00E94C300FC
:1004700081112FC08E01000F111F000F111F06598F
:100480001F4F0E0D1F1DC658DF4FF801B080688149
:1004900080E00E94C3008823C1F3C1E041E0F6017F
:1004A0003197608180E00E948600C13039F0FFEF13
:1004B000EF1AFF0A84E0E816F10449F68B2DDF916C
:1004C000CF911F910F91FF90EF90DF90CF90BF9051
:1004D00008952196C430D10529F6C0E0DFCF41E070
:1004E00067E082E00E9486008FEC97E00197F1F7C9
:1004F00000C0000040E067E082E00C948600CF93EB
:10050000C82F40E065E082E00E94860040E066E09F
:1005100082E00E9486006C2F83E00E940301CF914D
:100520000C946F0261E083E00E94DD0041E065E031
:1005300082E00E94490041E066E082E00E944900BA
:1005400041E067E082E00E9449002FEB8AED90E0F5
:10055000215080409040E1F700C0000088E30E94F5
:100560007F028FEC97E00197F1F700C000008CE06C
:100570000E947F028FEC97E00197F1F700C0000026
:1005800081E00E947F028FE99FE00197F1F700C0B0
:10059000000086E00E947F028FEC97E00197F1F760
:1005A00000C000000895823050F4603140F4813082
:1005B00021F080E8860F0C947F0280ECFBCF089539
:1005C00085E00C947F0287E00C947F0281E00C941C
:1005D0007F02CF93C82F41E065E082E00E94860051
:1005E00040E066E082E00E9486006C2F83E00E947B
:1005F0000301CF910C946F020F931F93CF938C0143
:10060000C0E0F801EC0FF11D8081811104C0CF9191
:100610001F910F9108950E94E902CF5FF2CF0F93CF
:100620001F93CF93DF938B010E947F02E801085F45
:100630001F4F89910E94E902C017D107D1F7DF91BE
:10064000CF911F910F910895CF93C82F862F642FBC
:100650000E94D3028C2FCF910C94E9020F931F9329
:10066000CF93DF93CDB7DEB764970FB6F894DEBFB4
:100670000FBECDBF20E03AE081110FC021508E01A6
:10068000020F111D0E5F1F4F21110CC0F801829146
:100690008F01805D0E94E902F9CF632F0E940F0550
:1006A0002F5FEACF64960FB6F894DEBF0FBECDBFC2
:1006B000DF91CF911F910F9108951F93CF93DF93F7
:1006C000843080F4683070F4142FD62FC82F40E0A7
:1006D0000E944900412F6D2F8C2FDF91CF911F91E8
:1006E0000C945C01DF91CF911F910895843020F428
:1006F000683010F40C94C30080E0089541E060E09D
:1007000082E00E94860040E061E082E00E94860074
:1007100041E062E082E00E94860040E063E082E027
:100720000C94860040E060E082E00E94860041E098
:1007300061E082E00E94860040E062E082E00E9488
:10074000860041E063E082E00C94860041E060E0D6
:1007500082E00E94860040E061E082E00E94860024
:1007600040E062E082E00E94860040E063E082E0D8
:100770000C94860040E060E082E00E94860040E049
:1007800061E082E00E94860041E062E082E00E9437
:10079000860040E063E082E00C94860040E060E088
:1007A00082E00E94860040E061E082E00E948600D4
:1007B00040E062E082E00E94860040E063E082E088
:1007C0000C9486008F929F92AF92BF92CF92DF924D
:1007D000EF92FF921F93CF93DF93EC01EBE2C12CDA
:1007E000D12C7601812C912C54011991111116C034
:1007F000EB3209F470C00CF05AC0EA3209F475C04B
:10080000C501B401DF91CF911F91FF90EF90DF9070
:10081000CF90BF90AF909F908F90089580ED810F03
:100820008A30B8F4AAE0B0E0A70196010E943A0528
:10083000C12E110FDD0820E3C21AD1080D2C000CC7
:10084000EE08FF08C60ED71EE81EF91E1E2FE12F68
:10085000CCCFEB32C9F034F4EA3201F1C12CD12C07
:100860007601F5CFED32A9F0EF32C1F7C114D10412
:10087000E104F10461F3C501B401A70196010E94EE
:100880001B0549015A01EACF8C0C9D1CAE1CBF1CF4
:10089000E5CF8C189D08AE08BF08E0CFA5019401F4
:1008A000C701B6010E94FF044B015C01D7CFED32B6
:1008B000B9F0EF3209F0A4CFC114D104E104F1047E
:1008C00009F49ECFC501B401A70196010E941B0542
:1008D00049015A0195CF8C0C9D1CAE1CBF1C90CFBA
:1008E0008C189D08AE08BF088BCFA5019401C701E5
:1008F000B6010E94FF044B015C0182CFCF93DF93CE
:10090000CDB7DEB760970FB6F894DEBF0FBECDBF90
:100910000E9492020E94C60160E080E00E94D30221
:1009200082E890E00E94FC022FEF89E698E12150D6
:1009300080409040E1F700C000000E94E60260E0C5
:1009400080E00E94D3020E9416028F3FE1F38D33B4
:1009500031F5E0919800F0919900E456FF4F108234
:100960008CE990E00E94E2036B010E94E6028DE8B0
:1009700090E00E94FC024AE0BE016F5F7F4FC6011B
:100980000E947605CE0101960E94FC02109298000A
:100990001092990010929A0010929B00D4CF83324B
:1009A00059F4109298001092990010929A001092A7
:1009B0009B000E94E602C7CF409198005091990099
:1009C00060919A0070919B004F305105610571054F
:1009D00008F0B9CF8A019B010F5F1F4F2F4F3F4F88
:1009E000009398001093990020939A0030939B00F5
:1009F00044565F4FFA0180830E94E902A4CFDB01D5
:100A00008F939F930E943A05BF91AF91A29F800D53
:100A1000911DA39F900DB29F900D11240895991BD5
:100A200079E004C0991F961708F0961B881F7A95E5
:100A3000C9F780950895052E97FB1EF400940E9437
:100A4000320557FD07D00E94450507FC03D04EF440
:100A50000C94320550954095309521953F4F4F4F5E
:100A60005F4F089590958095709561957F4F8F4F5A
:100A70009F4F08950E946705A59F900DB49F900D0C
:100A8000A49F800D911D11240895A1E21A2EAA1B86
:100A9000BB1BFD010DC0AA1FBB1FEE1FFF1FA2172E
:100AA000B307E407F50720F0A21BB30BE40BF50B2B
:100AB000661F771F881F991F1A9469F760957095B4
:100AC000809590959B01AC01BD01CF010895A29F37
:100AD000B001B39FC001A39F700D811D1124911D12
:100AE000B29F700D811D1124911D0895BB274A30BE
:100AF00031F4992322F4BDE2909581959F4F0C9497
:100B00008205BB27FB015527AA27880F991FAA1F1B
:100B1000A41710F0A41B83955051B9F7A05DAA3318
:100B200008F0A95DA193009779F7B111B1931192E3
:100B3000CB010C949B05DC01FC01672F719177239D
:100B4000E1F7329704C07C916D9370836291AE1788
:0A0B5000BF07C8F30895F894FFCF23
:100B5A00C0F9A4B0999282F880903738392F343589
:100B6A00362A3132332D23303D2B0001020304058E
:100B7A00060743414C43554C41544F52002052659D
:080B8A0073756C743A20000041
:00000001FF
